{
  "contractName": "SuiviMed",
  "abi": [
    {
      "inputs": [
        {
          "internalType": "address",
          "name": "_addressPromoter",
          "type": "address"
        },
        {
          "internalType": "address",
          "name": "_addressAuthority",
          "type": "address"
        }
      ],
      "stateMutability": "nonpayable",
      "type": "constructor"
    },
    {
      "anonymous": false,
      "inputs": [
        {
          "indexed": true,
          "internalType": "bytes32",
          "name": "role",
          "type": "bytes32"
        },
        {
          "indexed": true,
          "internalType": "bytes32",
          "name": "previousAdminRole",
          "type": "bytes32"
        },
        {
          "indexed": true,
          "internalType": "bytes32",
          "name": "newAdminRole",
          "type": "bytes32"
        }
      ],
      "name": "RoleAdminChanged",
      "type": "event"
    },
    {
      "anonymous": false,
      "inputs": [
        {
          "indexed": true,
          "internalType": "bytes32",
          "name": "role",
          "type": "bytes32"
        },
        {
          "indexed": true,
          "internalType": "address",
          "name": "account",
          "type": "address"
        },
        {
          "indexed": true,
          "internalType": "address",
          "name": "sender",
          "type": "address"
        }
      ],
      "name": "RoleGranted",
      "type": "event"
    },
    {
      "anonymous": false,
      "inputs": [
        {
          "indexed": true,
          "internalType": "bytes32",
          "name": "role",
          "type": "bytes32"
        },
        {
          "indexed": true,
          "internalType": "address",
          "name": "account",
          "type": "address"
        },
        {
          "indexed": true,
          "internalType": "address",
          "name": "sender",
          "type": "address"
        }
      ],
      "name": "RoleRevoked",
      "type": "event"
    },
    {
      "anonymous": false,
      "inputs": [
        {
          "indexed": false,
          "internalType": "uint256",
          "name": "_protocolID",
          "type": "uint256"
        },
        {
          "indexed": false,
          "internalType": "address",
          "name": "_personAgreeing",
          "type": "address"
        }
      ],
      "name": "agreedOnResumeEvent",
      "type": "event"
    },
    {
      "anonymous": false,
      "inputs": [
        {
          "indexed": false,
          "internalType": "uint256",
          "name": "_patientID",
          "type": "uint256"
        },
        {
          "indexed": false,
          "internalType": "uint256",
          "name": "_projectID",
          "type": "uint256"
        }
      ],
      "name": "alert",
      "type": "event"
    },
    {
      "anonymous": false,
      "inputs": [
        {
          "indexed": false,
          "internalType": "address",
          "name": "_addressAuthority",
          "type": "address"
        }
      ],
      "name": "authorityAdded",
      "type": "event"
    },
    {
      "anonymous": false,
      "inputs": [
        {
          "indexed": false,
          "internalType": "uint256",
          "name": "_patientID",
          "type": "uint256"
        }
      ],
      "name": "consentRevoked",
      "type": "event"
    },
    {
      "anonymous": false,
      "inputs": [
        {
          "indexed": false,
          "internalType": "uint256",
          "name": "_patientID",
          "type": "uint256"
        }
      ],
      "name": "dataCollected",
      "type": "event"
    },
    {
      "anonymous": false,
      "inputs": [
        {
          "indexed": false,
          "internalType": "address",
          "name": "_investigatorAddress",
          "type": "address"
        }
      ],
      "name": "investigatorAdded",
      "type": "event"
    },
    {
      "anonymous": false,
      "inputs": [
        {
          "indexed": false,
          "internalType": "uint256",
          "name": "_patientID",
          "type": "uint256"
        }
      ],
      "name": "newConsent",
      "type": "event"
    },
    {
      "anonymous": false,
      "inputs": [
        {
          "indexed": false,
          "internalType": "uint256",
          "name": "_patientID",
          "type": "uint256"
        },
        {
          "indexed": false,
          "internalType": "uint256",
          "name": "_projectID",
          "type": "uint256"
        }
      ],
      "name": "patientAdded",
      "type": "event"
    },
    {
      "anonymous": false,
      "inputs": [
        {
          "indexed": false,
          "internalType": "uint256",
          "name": "_projectID",
          "type": "uint256"
        },
        {
          "indexed": false,
          "internalType": "uint256",
          "name": "_protocolID",
          "type": "uint256"
        }
      ],
      "name": "projectCreation",
      "type": "event"
    },
    {
      "anonymous": false,
      "inputs": [
        {
          "indexed": false,
          "internalType": "address",
          "name": "_addressPromoter",
          "type": "address"
        }
      ],
      "name": "promoterAdded",
      "type": "event"
    },
    {
      "anonymous": false,
      "inputs": [
        {
          "indexed": false,
          "internalType": "address",
          "name": "_promoterAddress",
          "type": "address"
        },
        {
          "indexed": false,
          "internalType": "uint256",
          "name": "_protocolID",
          "type": "uint256"
        }
      ],
      "name": "protocolCreation",
      "type": "event"
    },
    {
      "anonymous": false,
      "inputs": [
        {
          "indexed": false,
          "internalType": "uint256",
          "name": "_protocolID",
          "type": "uint256"
        }
      ],
      "name": "protocolUpdated",
      "type": "event"
    },
    {
      "anonymous": false,
      "inputs": [
        {
          "indexed": false,
          "internalType": "uint256",
          "name": "_protocolID",
          "type": "uint256"
        },
        {
          "indexed": false,
          "internalType": "address",
          "name": "_authorityAddress",
          "type": "address"
        }
      ],
      "name": "protocolValidation",
      "type": "event"
    },
    {
      "anonymous": false,
      "inputs": [
        {
          "indexed": false,
          "internalType": "uint256",
          "name": "_protocolID",
          "type": "uint256"
        }
      ],
      "name": "resumedAfterAlert",
      "type": "event"
    },
    {
      "inputs": [],
      "name": "AUTHORITY",
      "outputs": [
        {
          "internalType": "bytes32",
          "name": "",
          "type": "bytes32"
        }
      ],
      "stateMutability": "view",
      "type": "function",
      "constant": true
    },
    {
      "inputs": [],
      "name": "AUTHORITYADMIN",
      "outputs": [
        {
          "internalType": "bytes32",
          "name": "",
          "type": "bytes32"
        }
      ],
      "stateMutability": "view",
      "type": "function",
      "constant": true
    },
    {
      "inputs": [],
      "name": "DEFAULT_ADMIN_ROLE",
      "outputs": [
        {
          "internalType": "bytes32",
          "name": "",
          "type": "bytes32"
        }
      ],
      "stateMutability": "view",
      "type": "function",
      "constant": true
    },
    {
      "inputs": [],
      "name": "INVESTIGATOR",
      "outputs": [
        {
          "internalType": "bytes32",
          "name": "",
          "type": "bytes32"
        }
      ],
      "stateMutability": "view",
      "type": "function",
      "constant": true
    },
    {
      "inputs": [],
      "name": "PROMOTER",
      "outputs": [
        {
          "internalType": "bytes32",
          "name": "",
          "type": "bytes32"
        }
      ],
      "stateMutability": "view",
      "type": "function",
      "constant": true
    },
    {
      "inputs": [],
      "name": "PROMOTERADMIN",
      "outputs": [
        {
          "internalType": "bytes32",
          "name": "",
          "type": "bytes32"
        }
      ],
      "stateMutability": "view",
      "type": "function",
      "constant": true
    },
    {
      "inputs": [
        {
          "internalType": "bytes32",
          "name": "role",
          "type": "bytes32"
        }
      ],
      "name": "getRoleAdmin",
      "outputs": [
        {
          "internalType": "bytes32",
          "name": "",
          "type": "bytes32"
        }
      ],
      "stateMutability": "view",
      "type": "function",
      "constant": true
    },
    {
      "inputs": [
        {
          "internalType": "bytes32",
          "name": "role",
          "type": "bytes32"
        },
        {
          "internalType": "address",
          "name": "account",
          "type": "address"
        }
      ],
      "name": "grantRole",
      "outputs": [],
      "stateMutability": "nonpayable",
      "type": "function"
    },
    {
      "inputs": [
        {
          "internalType": "bytes32",
          "name": "role",
          "type": "bytes32"
        },
        {
          "internalType": "address",
          "name": "account",
          "type": "address"
        }
      ],
      "name": "hasRole",
      "outputs": [
        {
          "internalType": "bool",
          "name": "",
          "type": "bool"
        }
      ],
      "stateMutability": "view",
      "type": "function",
      "constant": true
    },
    {
      "inputs": [
        {
          "internalType": "uint256",
          "name": "",
          "type": "uint256"
        }
      ],
      "name": "patients",
      "outputs": [
        {
          "internalType": "address",
          "name": "patientAddress",
          "type": "address"
        },
        {
          "internalType": "address",
          "name": "investigatorAddress",
          "type": "address"
        },
        {
          "internalType": "uint256",
          "name": "projectID",
          "type": "uint256"
        },
        {
          "internalType": "string",
          "name": "nameCID",
          "type": "string"
        },
        {
          "internalType": "bool",
          "name": "consent",
          "type": "bool"
        }
      ],
      "stateMutability": "view",
      "type": "function",
      "constant": true
    },
    {
      "inputs": [
        {
          "internalType": "uint256",
          "name": "",
          "type": "uint256"
        }
      ],
      "name": "projects",
      "outputs": [
        {
          "internalType": "uint256",
          "name": "protocolID",
          "type": "uint256"
        },
        {
          "internalType": "address",
          "name": "promoterAddress",
          "type": "address"
        },
        {
          "internalType": "enum SuiviMed.Status",
          "name": "status",
          "type": "uint8"
        }
      ],
      "stateMutability": "view",
      "type": "function",
      "constant": true
    },
    {
      "inputs": [
        {
          "internalType": "uint256",
          "name": "",
          "type": "uint256"
        }
      ],
      "name": "protocols",
      "outputs": [
        {
          "internalType": "bool",
          "name": "validated",
          "type": "bool"
        },
        {
          "internalType": "bool",
          "name": "alertOn",
          "type": "bool"
        },
        {
          "internalType": "uint256",
          "name": "date",
          "type": "uint256"
        },
        {
          "internalType": "address",
          "name": "promoterAddress",
          "type": "address"
        },
        {
          "internalType": "string",
          "name": "descriptionCID",
          "type": "string"
        },
        {
          "internalType": "string",
          "name": "treatmentsListCID",
          "type": "string"
        }
      ],
      "stateMutability": "view",
      "type": "function",
      "constant": true
    },
    {
      "inputs": [
        {
          "internalType": "bytes32",
          "name": "role",
          "type": "bytes32"
        },
        {
          "internalType": "address",
          "name": "account",
          "type": "address"
        }
      ],
      "name": "renounceRole",
      "outputs": [],
      "stateMutability": "nonpayable",
      "type": "function"
    },
    {
      "inputs": [
        {
          "internalType": "bytes32",
          "name": "role",
          "type": "bytes32"
        },
        {
          "internalType": "address",
          "name": "account",
          "type": "address"
        }
      ],
      "name": "revokeRole",
      "outputs": [],
      "stateMutability": "nonpayable",
      "type": "function"
    },
    {
      "inputs": [
        {
          "internalType": "bytes4",
          "name": "interfaceId",
          "type": "bytes4"
        }
      ],
      "name": "supportsInterface",
      "outputs": [
        {
          "internalType": "bool",
          "name": "",
          "type": "bool"
        }
      ],
      "stateMutability": "view",
      "type": "function",
      "constant": true
    },
    {
      "inputs": [
        {
          "internalType": "address",
          "name": "_addressPromoter",
          "type": "address"
        }
      ],
      "name": "addPromoter",
      "outputs": [],
      "stateMutability": "nonpayable",
      "type": "function"
    },
    {
      "inputs": [
        {
          "internalType": "address",
          "name": "_addressAuthority",
          "type": "address"
        }
      ],
      "name": "addAuthority",
      "outputs": [],
      "stateMutability": "nonpayable",
      "type": "function"
    },
    {
      "inputs": [
        {
          "internalType": "address",
          "name": "_addressInvestigator",
          "type": "address"
        },
        {
          "internalType": "uint256",
          "name": "_projectID",
          "type": "uint256"
        }
      ],
      "name": "addInvestigator",
      "outputs": [],
      "stateMutability": "nonpayable",
      "type": "function"
    },
    {
      "inputs": [
        {
          "internalType": "string",
          "name": "_descriptionCID",
          "type": "string"
        },
        {
          "internalType": "string",
          "name": "_treatmentsListCID",
          "type": "string"
        }
      ],
      "name": "createProtocol",
      "outputs": [],
      "stateMutability": "nonpayable",
      "type": "function"
    },
    {
      "inputs": [
        {
          "internalType": "uint256",
          "name": "_protocolID",
          "type": "uint256"
        },
        {
          "internalType": "address",
          "name": "_investigatorAddress",
          "type": "address"
        }
      ],
      "name": "createProject",
      "outputs": [],
      "stateMutability": "nonpayable",
      "type": "function"
    },
    {
      "inputs": [
        {
          "internalType": "uint256",
          "name": "_protocolID",
          "type": "uint256"
        }
      ],
      "name": "validateProtocol",
      "outputs": [],
      "stateMutability": "nonpayable",
      "type": "function"
    },
    {
      "inputs": [
        {
          "internalType": "address",
          "name": "_patientAddress",
          "type": "address"
        },
        {
          "internalType": "uint256",
          "name": "_projectID",
          "type": "uint256"
        },
        {
          "internalType": "string",
          "name": "_dataCID",
          "type": "string"
        },
        {
          "internalType": "string",
          "name": "_nameCID",
          "type": "string"
        }
      ],
      "name": "addPatient",
      "outputs": [],
      "stateMutability": "nonpayable",
      "type": "function"
    },
    {
      "inputs": [
        {
          "internalType": "uint256",
          "name": "_patientID",
          "type": "uint256"
        }
      ],
      "name": "revokeConsent",
      "outputs": [],
      "stateMutability": "nonpayable",
      "type": "function"
    },
    {
      "inputs": [
        {
          "internalType": "uint256",
          "name": "_patientID",
          "type": "uint256"
        },
        {
          "internalType": "string",
          "name": "_newDataCID",
          "type": "string"
        }
      ],
      "name": "collectData",
      "outputs": [],
      "stateMutability": "nonpayable",
      "type": "function"
    },
    {
      "inputs": [
        {
          "internalType": "uint256",
          "name": "_patientID",
          "type": "uint256"
        },
        {
          "internalType": "uint256",
          "name": "_protocolID",
          "type": "uint256"
        }
      ],
      "name": "setAlertOn",
      "outputs": [],
      "stateMutability": "nonpayable",
      "type": "function"
    },
    {
      "inputs": [
        {
          "internalType": "uint256",
          "name": "_protocolID",
          "type": "uint256"
        }
      ],
      "name": "agreeOnResume",
      "outputs": [],
      "stateMutability": "nonpayable",
      "type": "function"
    },
    {
      "inputs": [
        {
          "internalType": "uint256",
          "name": "_protocolID",
          "type": "uint256"
        }
      ],
      "name": "resumeAfterAlert",
      "outputs": [],
      "stateMutability": "nonpayable",
      "type": "function"
    },
    {
      "inputs": [
        {
          "internalType": "uint256",
          "name": "_patientID",
          "type": "uint256"
        }
      ],
      "name": "getPatientDataCIDs",
      "outputs": [
        {
          "internalType": "string[]",
          "name": "",
          "type": "string[]"
        }
      ],
      "stateMutability": "view",
      "type": "function",
      "constant": true
    },
    {
      "inputs": [
        {
          "internalType": "address",
          "name": "_address",
          "type": "address"
        }
      ],
      "name": "getRole",
      "outputs": [
        {
          "internalType": "string",
          "name": "",
          "type": "string"
        }
      ],
      "stateMutability": "view",
      "type": "function",
      "constant": true
    },
    {
      "inputs": [
        {
          "internalType": "uint256",
          "name": "_protocolID",
          "type": "uint256"
        }
      ],
      "name": "getProtocolCIDs",
      "outputs": [
        {
          "internalType": "string[2]",
          "name": "",
          "type": "string[2]"
        }
      ],
      "stateMutability": "view",
      "type": "function",
      "constant": true
    },
    {
      "inputs": [],
      "name": "getProtocols",
      "outputs": [
        {
          "components": [
            {
              "internalType": "bool",
              "name": "validated",
              "type": "bool"
            },
            {
              "internalType": "bool",
              "name": "alertOn",
              "type": "bool"
            },
            {
              "internalType": "uint256",
              "name": "date",
              "type": "uint256"
            },
            {
              "internalType": "address",
              "name": "promoterAddress",
              "type": "address"
            },
            {
              "internalType": "string",
              "name": "descriptionCID",
              "type": "string"
            },
            {
              "internalType": "string",
              "name": "treatmentsListCID",
              "type": "string"
            }
          ],
          "internalType": "struct SuiviMed.Protocol[]",
          "name": "",
          "type": "tuple[]"
        }
      ],
      "stateMutability": "view",
      "type": "function",
      "constant": true
    },
    {
      "inputs": [],
      "name": "getProjects",
      "outputs": [
        {
          "components": [
            {
              "internalType": "uint256",
              "name": "protocolID",
              "type": "uint256"
            },
            {
              "internalType": "address",
              "name": "promoterAddress",
              "type": "address"
            },
            {
              "internalType": "address[]",
              "name": "investigatorsAddresses",
              "type": "address[]"
            },
            {
              "internalType": "enum SuiviMed.Status",
              "name": "status",
              "type": "uint8"
            }
          ],
          "internalType": "struct SuiviMed.Project[]",
          "name": "",
          "type": "tuple[]"
        }
      ],
      "stateMutability": "view",
      "type": "function",
      "constant": true
    },
    {
      "inputs": [],
      "name": "getPatients",
      "outputs": [
        {
          "components": [
            {
              "internalType": "address",
              "name": "patientAddress",
              "type": "address"
            },
            {
              "internalType": "address",
              "name": "investigatorAddress",
              "type": "address"
            },
            {
              "internalType": "uint256",
              "name": "projectID",
              "type": "uint256"
            },
            {
              "internalType": "string[]",
              "name": "dataCID",
              "type": "string[]"
            },
            {
              "internalType": "string",
              "name": "nameCID",
              "type": "string"
            },
            {
              "internalType": "bool",
              "name": "consent",
              "type": "bool"
            }
          ],
          "internalType": "struct SuiviMed.Patient[]",
          "name": "",
          "type": "tuple[]"
        }
      ],
      "stateMutability": "view",
      "type": "function",
      "constant": true
    }
  ],
  "bytecode": "0x60806040523480156200001157600080fd5b5060405162003c2038038062003c208339810160408190526200003491620002dd565b6200005860008051602062003ba08339815191528364010000000062000176810204565b6200007c60008051602062003c008339815191528364010000000062000176810204565b620000af60008051602062003ba083398151915260008051602062003c008339815191526401000000006200018f810204565b620000f37f97f21e7273917267af1fea4c3510695aa29abe57349ce57ceec11b346883180360008051602062003ba08339815191526401000000006200018f810204565b6200011760008051602062003bc08339815191528264010000000062000176810204565b6200013b60008051602062003be08339815191528264010000000062000176810204565b6200016e60008051602062003bc083398151915260008051602062003be08339815191526401000000006200018f810204565b505062000314565b6200018b8282640100000000620001e4810204565b5050565b80620001a48364010000000062000280810204565b60405184907fbd79b86ffe0ab8e8776151514217cd7cacd52c909f66475c3af44e129f0b00ff90600090a460009182526020829052604090912060010155565b620001f9828264010000000062000298810204565b6200018b57600082815260208181526040808320600160a060020a03851684529091529020805460ff191660011790556200023c640100000000620002c1810204565b600160a060020a031681600160a060020a0316837f2f8788117e7eff1d82e926ec794901d17c78024a50270940304540a733656f0d60405160405180910390a45050565b6000818152602081905260409020600101545b919050565b600091825260208281526040808420600160a060020a0393909316845291905290205460ff1690565b3390565b8051600160a060020a03811681146200029357600080fd5b60008060408385031215620002f0578182fd5b620002fb83620002c5565b91506200030b60208401620002c5565b90509250929050565b61387c80620003246000396000f3fe608060405234801561001057600080fd5b5060043610610218576000357c01000000000000000000000000000000000000000000000000000000009004806391d1485411610137578063cf957199116100ca578063dcc6012811610099578063dcc6012814610485578063ec9f4bda1461049a578063f3cb9271146104a2578063f434bb68146104b5578063fdbf8670146104ca57610218565b8063cf9571991461042c578063d4ec735d1461043f578063d547741f14610452578063d95479431461046557610218565b8063b543e5a911610106578063b543e5a9146103eb578063bee3c784146103fe578063c72ff16714610411578063cf2a9a931461042457610218565b806391d148541461039957806393119a83146103ac578063a217fddf146103d0578063b43e0274146103d857610218565b806336568abe116101af5780635a9184d61161017e5780635a9184d6146103395780637a25e3531461034c57806389fcd7961461036c5780638c3962201461037457610218565b806336568abe146102e057806344276733146102f3578063458fb11a1461031357806354a0c4581461032657610218565b80631fa4f8e0116101eb5780631fa4f8e014610292578063248a9ca3146102a757806326defa73146102ba5780632f2ff15d146102cd57610218565b806301ffc9a71461021d578063107046bd1461024657806312ad1c371461026857806316a0042c1461027d575b600080fd5b61023061022b366004612ba2565b6104d2565b60405161023d9190613059565b60405180910390f35b610259610254366004612b5f565b61052d565b60405161023d9392919061370b565b61027061056f565b60405161023d9190612e32565b61029061028b366004612b5f565b61076c565b005b61029a610865565b60405161023d91906130bb565b61029a6102b5366004612b5f565b610889565b6102906102c8366004612a9a565b61089e565b6102906102db366004612b77565b610966565b6102906102ee366004612b77565b6109a7565b610306610301366004612a9a565b6109ec565b60405161023d91906130c4565b610290610321366004612bdf565b610b2d565b610290610334366004612a9a565b610d05565b610290610347366004612b77565b610dcd565b61035f61035a366004612b5f565b611082565b60405161023d9190612e1f565b61029a611190565b610387610382366004612b5f565b6111a2565b60405161023d96959493929190613064565b6102306103a7366004612b77565b61130e565b6103bf6103ba366004612b5f565b611339565b60405161023d959493929190612d73565b61029a611416565b6102906103e6366004612b5f565b61141b565b6102906103f9366004612c7b565b611506565b61029061040c366004612abb565b611671565b61029061041f366004612b5f565b611806565b61029a6118d8565b61029061043a366004612c40565b6118ea565b61029061044d366004612ae4565b611ad2565b610290610460366004612b77565b611dbf565b610478610473366004612b5f565b611dea565b60405161023d9190612dd2565b61048d611fff565b60405161023d9190612ef0565b61029a612120565b6102906104b0366004612b5f565b612132565b6104bd6123bf565b60405161023d9190612fab565b61029a612579565b60007bffffffffffffffffffffffffffffffffffffffffffffffffffffffff1982167f7965db0b00000000000000000000000000000000000000000000000000000000148061052557506105258261259d565b90505b919050565b6005818154811061053d57600080fd5b6000918252602090912060049091020180546001820154600390920154909250600160a060020a039091169060ff1683565b60606006805480602002602001604051908101604052809291908181526020016000905b8282101561076357600084815260208082206040805160c081018252600687029092018054600160a060020a0390811684526001820154168385015260028101548383015260038101805483518187028101870190945280845293959194606087019491929084015b828210156106a857838290600052602060002001805461061b9061375b565b80601f01602080910402602001604051908101604052809291908181526020018280546106479061375b565b80156106945780601f1061066957610100808354040283529160200191610694565b820191906000526020600020905b81548152906001019060200180831161067757829003601f168201915b5050505050815260200190600101906105fc565b5050505081526020016004820180546106c09061375b565b80601f01602080910402602001604051908101604052809291908181526020018280546106ec9061375b565b80156107395780601f1061070e57610100808354040283529160200191610739565b820191906000526020600020905b81548152906001019060200180831161071c57829003601f168201915b50505091835250506005919091015460ff1615156020918201529082526001929092019101610593565b50505050905090565b33600160a060020a03166006828154811061079a5760e060020a634e487b7102600052603260045260246000fd5b6000918252602090912060069091020154600160a060020a0316146107dd5760405160e560020a62461bcd0281526004016107d49061363a565b60405180910390fd5b6000600682815481106108035760e060020a634e487b7102600052603260045260246000fd5b906000526020600020906006020160050160006101000a81548160ff0219169083151502179055507f1c29a840094776505fecc7edcc6b1f50f3850403558ec39c9fb0f1d3179c60938160405161085a91906130bb565b60405180910390a150565b7f3e206be88d1de4207c0189003e17add3718b1a1bf78910a785940577239bbdae81565b60009081526020819052604090206001015490565b6108c87f3e206be88d1de4207c0189003e17add3718b1a1bf78910a785940577239bbdae3361130e565b6108e75760405160e560020a62461bcd0281526004016107d490613595565b6108ff6000805160206138078339815191528261130e565b1561091f5760405160e560020a62461bcd0281526004016107d49061310e565b61093760008051602061380783398151915282610966565b7f3c0aee07d693a6f94b1a6aca6097bdde55429f0834eb9c27e3c31a03081f09b48160405161085a9190612d5f565b61097a61097283610889565b6103a76125e4565b6109995760405160e560020a62461bcd0281526004016107d49061317c565b6109a382826125e8565b5050565b6109af6125e4565b600160a060020a031681600160a060020a0316146109e25760405160e560020a62461bcd0281526004016107d490613697565b6109a3828261266d565b6060610a066000805160206137e78339815191528361130e565b15610a45575060408051808201909152600881527f50524f4d4f5445520000000000000000000000000000000000000000000000006020820152610528565b610a5d6000805160206138078339815191528361130e565b15610a9c575060408051808201909152600981527f415554484f5249545900000000000000000000000000000000000000000000006020820152610528565b610ab46000805160206138278339815191528361130e565b15610af3575060408051808201909152600c81527f494e56455354494741544f5200000000000000000000000000000000000000006020820152610528565b5060408051808201909152600681527f4e4f524f4c4500000000000000000000000000000000000000000000000000006020820152610528565b610b456000805160206137e78339815191523361130e565b610b645760405160e560020a62461bcd0281526004016107d4906134f0565b6040805160c081018252600080825260208083018281524294840194855233606085019081526080850188815260a0860188905260048054600181018255955285517f8a35acfbc15ff81a39ae7d344fd709f28e8600b4aa8c65c6b64bfe7fe36bd19b60059096029586018054945160ff199095169115159190911761ff0019166101009415159490940293909317835595517f8a35acfbc15ff81a39ae7d344fd709f28e8600b4aa8c65c6b64bfe7fe36bd19c850155517f8a35acfbc15ff81a39ae7d344fd709f28e8600b4aa8c65c6b64bfe7fe36bd19d84018054600160a060020a031916600160a060020a0390921691909117905593518051939493610c94937f8a35acfbc15ff81a39ae7d344fd709f28e8600b4aa8c65c6b64bfe7fe36bd19e019291909101906127b2565b5060a08201518051610cb09160048401916020909101906127b2565b505060045460009150610cc590600190613744565b90507f393b49683a69d6c07468cd1452cf131050663f22ba18f2b6c635460c15a272e53382604051610cf8929190612db9565b60405180910390a1505050565b610d2f7f47a6ab365f603cf120cb936195de17fd0bac3880ff606e7a0edb5e8e6580b1ae3361130e565b610d4e5760405160e560020a62461bcd0281526004016107d4906133bb565b610d666000805160206137e78339815191528261130e565b15610d865760405160e560020a62461bcd0281526004016107d49061326d565b610d9e6000805160206137e783398151915282610966565b7f786ebfd921e487d94a7dbf555edf33e5f264f7b59acdcdfe139c08f48f0755598160405161085a9190612d5f565b610de56000805160206137e78339815191523361130e565b610e045760405160e560020a62461bcd0281526004016107d4906134f0565b600160048381548110610e2a5760e060020a634e487b7102600052603260045260246000fd5b60009182526020909120600590910201805460ff1916821515179055610e655760405160e560020a62461bcd0281526004016107d4906132a4565b610e7d60008051602061382783398151915282610966565b7fe8418412d360af43b959e2ca49b9ad98feb77e7b5597963ca346077db47d69ba81604051610eac9190612d5f565b60405180910390a1610ebc612836565b33602082810191825284835260006060840181905260058054600181018255915283517f036b6384b5eca791c62761152d0c79bb0604c104a5fb6f4eb0703f3154bb3db0600490920291820190815592517f036b6384b5eca791c62761152d0c79bb0604c104a5fb6f4eb0703f3154bb3db182018054600160a060020a031916600160a060020a0390921691909117905560408401518051859493610f85937f036b6384b5eca791c62761152d0c79bb0604c104a5fb6f4eb0703f3154bb3db201920190612888565b50606082015160038201805460ff19166001836002811115610fba5760e060020a634e487b7102600052602160045260246000fd5b02179055505060055460009150610fd390600190613744565b905060058181548110610ff95760e060020a634e487b7102600052603260045260246000fd5b60009182526020808320600260049093020182018054600181018255908452818420018054600160a060020a038816600160a060020a031990911617905586835252604090819020829055517fd0e085d27af7c005fe41734021fe6dbb0355363136765b640fb6f1ccc994aff1906110749083908790613736565b60405180910390a150505050565b6060600682815481106110a85760e060020a634e487b7102600052603260045260246000fd5b9060005260206000209060060201600301805480602002602001604051908101604052809291908181526020016000905b828210156111855783829060005260206000200180546110f89061375b565b80601f01602080910402602001604051908101604052809291908181526020018280546111249061375b565b80156111715780601f1061114657610100808354040283529160200191611171565b820191906000526020600020905b81548152906001019060200180831161115457829003601f168201915b5050505050815260200190600101906110d9565b505050509050919050565b60008051602061380783398151915281565b600481815481106111b257600080fd5b6000918252602090912060059091020180546001820154600283015460038401805460ff8086169750610100909504909416949293600160a060020a0390921692916111fd9061375b565b80601f01602080910402602001604051908101604052809291908181526020018280546112299061375b565b80156112765780601f1061124b57610100808354040283529160200191611276565b820191906000526020600020905b81548152906001019060200180831161125957829003601f168201915b50505050509080600401805461128b9061375b565b80601f01602080910402602001604051908101604052809291908181526020018280546112b79061375b565b80156113045780601f106112d957610100808354040283529160200191611304565b820191906000526020600020905b8154815290600101906020018083116112e757829003601f168201915b5050505050905086565b600082815260208181526040808320600160a060020a038516845290915290205460ff165b92915050565b6006818154811061134957600080fd5b60009182526020909120600690910201805460018201546002830154600484018054600160a060020a03948516965092909316939092909161138a9061375b565b80601f01602080910402602001604051908101604052809291908181526020018280546113b69061375b565b80156114035780601f106113d857610100808354040283529160200191611403565b820191906000526020600020905b8154815290600101906020018083116113e657829003601f168201915b5050506005909301549192505060ff1685565b600081565b6004818154811061143f5760e060020a634e487b7102600052603260045260246000fd5b6000918252602090912060059091020160020154600160a060020a031633148061147f5750600081815260016020526040902054600160a060020a031633145b61149e5760405160e560020a62461bcd0281526004016107d490613145565b3360009081526003602052604090205460ff16156114bb57600080fd5b3360008181526003602052604090819020805460ff19166001179055517fdc4b856117882b87e1f3f241b2b78a6716d2b8ca12a038dcaabbb96339c436c39161085a918491906136f4565b33600160a060020a0316600683815481106115345760e060020a634e487b7102600052603260045260246000fd5b6000918252602090912060016006909202010154600160a060020a0316146115715760405160e560020a62461bcd0281526004016107d490613301565b6001600482815481106115975760e060020a634e487b7102600052603260045260246000fd5b6000918252602080832060059283020180549415156101000261ff001990951694909417909355838252600290925260409020548154600192919081106115f15760e060020a634e487b7102600052603260045260246000fd5b60009182526020909120600360049092020101805460ff1916600183600281111561162f5760e060020a634e487b7102600052602160045260246000fd5b02179055507fe3213fd01fd10717035f9e59ad43129a8828ce3f408f79ec999dc8e3457bc3a28282604051611665929190613736565b60405180910390a15050565b6000600160a060020a0316600582815481106116a05760e060020a634e487b7102600052603260045260246000fd5b6000918252602090912060016004909202010154600160a060020a031614156116de5760405160e560020a62461bcd0281526004016107d4906133f2565b6116f66000805160206137e78339815191523361130e565b6117155760405160e560020a62461bcd0281526004016107d4906134f0565b61172d6000805160206138278339815191528361130e565b1561174d5760405160e560020a62461bcd0281526004016107d490613427565b61176560008051602061382783398151915283610966565b7fe8418412d360af43b959e2ca49b9ad98feb77e7b5597963ca346077db47d69ba826040516117949190612d5f565b60405180910390a1600581815481106117c05760e060020a634e487b7102600052603260045260246000fd5b6000918252602080832060049290920290910160020180546001810182559083529120018054600160a060020a031916600160a060020a03939093169290921790915550565b61181e6000805160206138078339815191523361130e565b61183d5760405160e560020a62461bcd0281526004016107d4906131d9565b6001600482815481106118635760e060020a634e487b7102600052603260045260246000fd5b600091825260208083206005909202909101805493151560ff199094169390931790925582815260019091526040908190208054600160a060020a0319163390811790915590517fd65df88a0588557d07f6211709908fee34507d4997824fe59d19e820a4c0723b9161085a918491906136f4565b60008051602061382783398151915281565b33600160a060020a0316600683815481106119185760e060020a634e487b7102600052603260045260246000fd5b6000918252602090912060016006909202010154600160a060020a0316146119555760405160e560020a62461bcd0281526004016107d490613301565b600682815481106119795760e060020a634e487b7102600052603260045260246000fd5b600091825260209091206005600690920201015460ff1615156001146119b45760405160e560020a62461bcd0281526004016107d490613603565b6004600683815481106119da5760e060020a634e487b7102600052603260045260246000fd5b90600052602060002090600602016002015481548110611a0d5760e060020a634e487b7102600052603260045260246000fd5b6000918252602090912060059091020154610100900460ff1615611a465760405160e560020a62461bcd0281526004016107d49061355e565b60068281548110611a6a5760e060020a634e487b7102600052603260045260246000fd5b600091825260208083206003600690930201919091018054600181018255908352918190208351611aa29391909101918401906127b2565b507f96eee3ca8183a57f6338a6136e1a5ea2d021e6a6a85a4d54427ff30604d555338260405161166591906130bb565b611adc83856126f0565b15611afc5760405160e560020a62461bcd0281526004016107d4906135cc565b611b146000805160206138278339815191523361130e565b611b335760405160e560020a62461bcd0281526004016107d490613527565b600460058481548110611b595760e060020a634e487b7102600052603260045260246000fd5b90600052602060002090600402016000015481548110611b8c5760e060020a634e487b7102600052603260045260246000fd5b6000918252602090912060059091020154610100900460ff1615611bc55760405160e560020a62461bcd0281526004016107d4906130d7565b611bcd6128dd565b600160a060020a0380861682523360208084019182526040840187815260808501869052600160a086018190526006805491820181556000819052865191027ff652222313e28459528d920b65115c16c04f3efc82aaedc97be59f3f377c0d3f81018054928716600160a060020a031993841617815594517ff652222313e28459528d920b65115c16c04f3efc82aaedc97be59f3f377c0d408201805491909716921691909117909455517ff652222313e28459528d920b65115c16c04f3efc82aaedc97be59f3f377c0d41840155606084015180518594611cd5937ff652222313e28459528d920b65115c16c04f3efc82aaedc97be59f3f377c0d42909101920190612911565b5060808201518051611cf19160048401916020909101906127b2565b5060a091909101516005909101805460ff1916911515919091179055600654600090611d1f90600190613744565b905060068181548110611d455760e060020a634e487b7102600052603260045260246000fd5b600091825260208083206003600690930201919091018054600181018255908352918190208651611d7d9391909101918701906127b2565b507f34c396fb26826913aa8548c785070af2f09b9dbcb4e7c95ae01119e7205a28a98186604051611daf929190613736565b60405180910390a1505050505050565b611dcb61097283610889565b6109e25760405160e560020a62461bcd0281526004016107d49061335e565b611df261296a565b611e0a6000805160206137e78339815191523361130e565b80611e285750611e286000805160206138078339815191523361130e565b80611e465750611e466000805160206138278339815191523361130e565b611e655760405160e560020a62461bcd0281526004016107d4906134b9565b6000604051806040016040528060048581548110611e965760e060020a634e487b7102600052603260045260246000fd5b90600052602060002090600502016003018054611eb29061375b565b80601f0160208091040260200160405190810160405280929190818152602001828054611ede9061375b565b8015611f2b5780601f10611f0057610100808354040283529160200191611f2b565b820191906000526020600020905b815481529060010190602001808311611f0e57829003601f168201915b5050505050815260200160048581548110611f595760e060020a634e487b7102600052603260045260246000fd5b90600052602060002090600502016004018054611f759061375b565b80601f0160208091040260200160405190810160405280929190818152602001828054611fa19061375b565b8015611fee5780601f10611fc357610100808354040283529160200191611fee565b820191906000526020600020905b815481529060010190602001808311611fd157829003601f168201915b505050919092525090949350505050565b60606005805480602002602001604051908101604052809291908181526020016000905b828210156107635760008481526020908190206040805160808101825260048602909201805483526001810154600160a060020a03168385015260028101805483518187028101870185528181529495929493860193928301828280156120b357602002820191906000526020600020905b8154600160a060020a03168152600190910190602001808311612095575b5050509183525050600382015460209091019060ff1660028111156120eb5760e060020a634e487b7102600052602160045260246000fd5b600281111561210d5760e060020a634e487b7102600052602160045260246000fd5b8152505081526020019060010190612023565b6000805160206137e783398151915281565b600360006004838154811061215a5760e060020a634e487b7102600052603260045260246000fd5b6000918252602080832060026005909302019190910154600160a060020a0316835282019290925260400190205460ff16151560011480156121c45750600081815260016020818152604080842054600160a060020a0316845260039091529091205460ff161515145b6121e35760405160e560020a62461bcd0281526004016107d49061345c565b600481815481106122075760e060020a634e487b7102600052603260045260246000fd5b6000918252602090912060059091020160020154600160a060020a031633146122455760405160e560020a62461bcd0281526004016107d490613210565b60006004828154811061226b5760e060020a634e487b7102600052603260045260246000fd5b6000918252602080832060059283020180549415156101000261ff00199095169490941790935583825260029092526040812054825491929181106122c35760e060020a634e487b7102600052603260045260246000fd5b60009182526020909120600360049092020101805460ff191660018360028111156123015760e060020a634e487b7102600052602160045260246000fd5b0217905550600060036000600484815481106123305760e060020a634e487b7102600052603260045260246000fd5b6000918252602080832060026005909302019190910154600160a060020a0390811684528382019490945260409283018220805495151560ff19968716179055858252600181528282205490931681526003909252908190208054909216909155517fba401e9d0da3456bc1ee7c3c23186d5f75b931b2976d96257878e87ec4886bbc9061085a9083906130bb565b60606004805480602002602001604051908101604052809291908181526020016000905b828210156107635760008481526020908190206040805160c08101825260058602909201805460ff80821615158552610100909104161515938301939093526001830154908201526002820154600160a060020a031660608201526003820180549192916080840191906124569061375b565b80601f01602080910402602001604051908101604052809291908181526020018280546124829061375b565b80156124cf5780601f106124a4576101008083540402835291602001916124cf565b820191906000526020600020905b8154815290600101906020018083116124b257829003601f168201915b505050505081526020016004820180546124e89061375b565b80601f01602080910402602001604051908101604052809291908181526020018280546125149061375b565b80156125615780601f1061253657610100808354040283529160200191612561565b820191906000526020600020905b81548152906001019060200180831161254457829003601f168201915b505050505081525050815260200190600101906123e3565b7f47a6ab365f603cf120cb936195de17fd0bac3880ff606e7a0edb5e8e6580b1ae81565b7bffffffffffffffffffffffffffffffffffffffffffffffffffffffff1981167f01ffc9a70000000000000000000000000000000000000000000000000000000014919050565b3390565b6125f2828261130e565b6109a357600082815260208181526040808320600160a060020a03851684529091529020805460ff191660011790556126296125e4565b600160a060020a031681600160a060020a0316837f2f8788117e7eff1d82e926ec794901d17c78024a50270940304540a733656f0d60405160405180910390a45050565b612677828261130e565b156109a357600082815260208181526040808320600160a060020a03851684529091529020805460ff191690556126ac6125e4565b600160a060020a031681600160a060020a0316837ff6391f5c32d9c69d2a47ea670b442974b53935d1edc7fd64eb21e047a839171b60405160405180910390a45050565b6000805b6006548110156127a85782600160a060020a03166006828154811061272c5760e060020a634e487b7102600052603260045260246000fd5b6000918252602090912060069091020154600160a060020a0316148015612787575083600682815481106127735760e060020a634e487b7102600052603260045260246000fd5b906000526020600020906006020160020154145b15612796576001915050611333565b806127a081613799565b9150506126f4565b5060009392505050565b8280546127be9061375b565b90600052602060002090601f0160209004810192826127e05760008555612826565b82601f106127f957805160ff1916838001178555612826565b82800160010185558215612826579182015b8281111561282657825182559160200191906001019061280b565b50612832929150612991565b5090565b6040518060800160405280600081526020016000600160a060020a0316815260200160608152602001600060028111156128835760e060020a634e487b7102600052602160045260246000fd5b905290565b828054828255906000526020600020908101928215612826579160200282015b828111156128265782518254600160a060020a031916600160a060020a039091161782556020909201916001909101906128a8565b6040805160c0810182526000808252602082018190529181018290526060808201819052608082015260a081019190915290565b82805482825590600052602060002090810192821561295e579160200282015b8281111561295e578251805161294e9184916020909101906127b2565b5091602001919060010190612931565b506128329291506129a6565b60405180604001604052806002905b60608152602001906001900390816129795790505090565b5b808211156128325760008155600101612992565b808211156128325760006129ba82826129c3565b506001016129a6565b5080546129cf9061375b565b6000825580601f106129e157506129ff565b601f0160209004906000526020600020908101906129ff9190612991565b50565b8035600160a060020a038116811461052857600080fd5b600082601f830112612a29578081fd5b813567ffffffffffffffff80821115612a4457612a446137cd565b604051601f8301601f191681016020018281118282101715612a6857612a686137cd565b604052828152848301602001861015612a7f578384fd5b82602086016020830137918201602001929092529392505050565b600060208284031215612aab578081fd5b612ab482612a02565b9392505050565b60008060408385031215612acd578081fd5b612ad683612a02565b946020939093013593505050565b60008060008060808587031215612af9578182fd5b612b0285612a02565b935060208501359250604085013567ffffffffffffffff80821115612b25578384fd5b612b3188838901612a19565b93506060870135915080821115612b46578283fd5b50612b5387828801612a19565b91505092959194509250565b600060208284031215612b70578081fd5b5035919050565b60008060408385031215612b89578182fd5b82359150612b9960208401612a02565b90509250929050565b600060208284031215612bb3578081fd5b81357bffffffffffffffffffffffffffffffffffffffffffffffffffffffff1981168114612ab4578182fd5b60008060408385031215612bf1578182fd5b823567ffffffffffffffff80821115612c08578384fd5b612c1486838701612a19565b93506020850135915080821115612c29578283fd5b50612c3685828601612a19565b9150509250929050565b60008060408385031215612c52578182fd5b82359150602083013567ffffffffffffffff811115612c6f578182fd5b612c3685828601612a19565b60008060408385031215612c8d578182fd5b50508035926020909101359150565b6000815180845260208085018081965082840281019150828601855b85811015612ce2578284038952612cd0848351612d14565b98850198935090840190600101612cb8565b5091979650505050505050565b60038110612d105760e060020a634e487b7102600052602160045260246000fd5b9052565b60008151808452815b81811015612d3957602081850181015186830182015201612d1d565b81811115612d4a5782602083870101525b50601f01601f19169290920160200192915050565b600160a060020a0391909116815260200190565b6000600160a060020a03808816835280871660208401525084604083015260a06060830152612da560a0830185612d14565b905082151560808301529695505050505050565b600160a060020a03929092168252602082015260400190565b60208082526000906060830183820185845b6002811015612e1357601f19878503018352612e01848351612d14565b93509184019190840190600101612de4565b50919695505050505050565b600060208252612ab46020830184612c9c565b60208082528251828201819052600091906040908185019080840286018301878501865b83811015612ee257603f19898403018552815160c0600160a060020a03808351168652808a840151168a8701525087820151888601526060808301518282880152612ea383880182612c9c565b9250505060808083015186830382880152612ebe8382612d14565b60a09485015115159790940196909652505094870194925090860190600101612e56565b509098975050505050505050565b60208082528251828201819052600091906040908185019080840286018301878501865b83811015612ee257888303603f1901855281518051845287810151600160a060020a0390811689860152878201516080898701819052815190870181905260a0870192918b01918c915b80831015612f8057835182168552938c0193928c019260019290920191612f5e565b5050505060609182015191612f9786820184612cef565b509588019593505090860190600101612f14565b60208082528251828201819052600091906040908185019080840286018301878501865b83811015612ee257603f19898403018552815160c08151151585528882015115158986015287820151888601526060600160a060020a0381840151168187015250608080830151828288015261302783880182612d14565b9250505060a080830151925085820381870152506130458183612d14565b968901969450505090860190600101612fcf565b901515815260200190565b600087151582528615156020830152856040830152600160a060020a038516606083015260c0608083015261309c60c0830185612d14565b82810360a08401526130ae8185612d14565b9998505050505050505050565b90815260200190565b600060208252612ab46020830184612d14565b6020808252601b908201527f546869732070726f746f636f6c2068617320616e20616c657274210000000000604082015260600190565b6020808252601d908201527f4164647265737320697320616c726561647920417574686f7269747921000000604082015260600190565b6020808252601f908201527f6e6f7420656c696769626c6520746f20676976652061677265656d656e742100604082015260600190565b6020808252602f908201527f416363657373436f6e74726f6c3a2073656e646572206d75737420626520616e60408201527f2061646d696e20746f206772616e740000000000000000000000000000000000606082015260800190565b60208082526016908201527f596f7520617265206e6f7420417574686f726974792100000000000000000000604082015260600190565b60208082526028908201527f4e6f7420656e7469746c656420746f207265737461727420636c696e6963616c60408201527f20747269616c7321000000000000000000000000000000000000000000000000606082015260800190565b6020808252601c908201527f4164647265737320697320616c72656164792050726f6d6f7465722100000000604082015260600190565b60208082526025908201527f546869732070726f746f636f6c20686173206e6f74206265656e2076616c696460408201527f6174656421000000000000000000000000000000000000000000000000000000606082015260800190565b60208082526035908201527f596f7520617265206e6f7420617574686f72697a656420746f2061636365737360408201527f20746869732070617469656e7427732064617461210000000000000000000000606082015260800190565b60208082526030908201527f416363657373436f6e74726f6c3a2073656e646572206d75737420626520616e60408201527f2061646d696e20746f207265766f6b6500000000000000000000000000000000606082015260800190565b6020808252601b908201527f596f7520617265206e6f742050726f6d6f7465722041646d696e210000000000604082015260600190565b6020808252818101527f746869732070726f6a65637420646f6573206e6f742065786973742079657421604082015260600190565b6020808252818101527f4164647265737320697320616c726561647920496e76657374696761746f7221604082015260600190565b60208082526026908201527f70726f6d6f74657220616e6420617574686f72697479206e6f7420616772656560408201527f6420796574210000000000000000000000000000000000000000000000000000606082015260800190565b6020808252601d908201527f6e6f7420616c6c6f77656420746f20726561642070726f746f636f6c21000000604082015260600190565b60208082526015908201527f596f7520617265206e6f742050726f6d6f746572210000000000000000000000604082015260600190565b60208082526019908201527f596f7520617265206e6f7420496e76657374696761746f722100000000000000604082015260600190565b60208082526017908201527f416c657274206f6e20746869732070726f746f636f6c21000000000000000000604082015260600190565b6020808252601c908201527f596f7520617265206e6f7420417574686f726974792041646d696e2100000000604082015260600190565b6020808252601c908201527f50617469656e747320616c726561647920726567697374657265642100000000604082015260600190565b60208082526015908201527f4e6f2070617469656e74277320636f6e73656e74210000000000000000000000604082015260600190565b60208082526022908201527f796f7520617265206e6f7420617574686f72697a656420746f20646f2074686160408201527f7421000000000000000000000000000000000000000000000000000000000000606082015260800190565b6020808252602f908201527f416363657373436f6e74726f6c3a2063616e206f6e6c792072656e6f756e636560408201527f20726f6c657320666f722073656c660000000000000000000000000000000000606082015260800190565b918252600160a060020a0316602082015260400190565b838152600160a060020a03831660208201526060810161372e6040830184612cef565b949350505050565b918252602082015260400190565b600082821015613756576137566137b4565b500390565b60028104600182168061376f57607f821691505b602082108114156137935760e060020a634e487b7102600052602260045260246000fd5b50919050565b60006000198214156137ad576137ad6137b4565b5060010190565b60e060020a634e487b7102600052601160045260246000fd5b60e060020a634e487b7102600052604160045260246000fdfe0996d044c7309cb5a01d79c18ee9e4c86aca84367cbd5bfd5f5d0606acc99273843b48dccc6ff192f9330133622b0536f7b94feca0cf36e7e46fc50060b6f88297f21e7273917267af1fea4c3510695aa29abe57349ce57ceec11b3468831803a2646970667358221220ebe79eb8d7c33357bb20306e048783738b5a05d1b3cace15051376cdbc903db664736f6c634300080000330996d044c7309cb5a01d79c18ee9e4c86aca84367cbd5bfd5f5d0606acc99273843b48dccc6ff192f9330133622b0536f7b94feca0cf36e7e46fc50060b6f8823e206be88d1de4207c0189003e17add3718b1a1bf78910a785940577239bbdae47a6ab365f603cf120cb936195de17fd0bac3880ff606e7a0edb5e8e6580b1ae",
  "immutableReferences": {},
  "source": "// SPDX-License-Identifier: MIT\npragma solidity 0.8.0;\npragma abicoder v2;\n\nimport \"../client/node_modules/@openzeppelin/contracts/access/AccessControl.sol\";\n\n/**\n * @title Decentralized clinical trials follow up\n * @author Bruno Coupier, Samuel Edoumou, Gregory Bost\n */\ncontract SuiviMed is AccessControl {\n    /**\n     * @dev Defines the Roles of AccessControl.\n     */\n    bytes32 public constant AUTHORITY = keccak256(\"AUTHORITY\");\n    bytes32 public constant AUTHORITYADMIN = keccak256(\"AUTHORITYADMIN\");\n    bytes32 public constant PROMOTER = keccak256(\"PROMOTER\");\n    bytes32 public constant PROMOTERADMIN = keccak256(\"PROMOTERADMIN\");\n    bytes32 public constant INVESTIGATOR = keccak256(\"INVESTIGATOR\");\n\n    enum Status {ACTIVE, SUSPENDED, COMPLETED}\n\n    struct Patient {\n        address patientAddress;\n        address investigatorAddress;\n        uint256 projectID;\n        string[] dataCID;\n        string nameCID;\n        bool consent;\n    }\n\n    struct Protocol {\n        bool validated;\n        bool alertOn;\n        uint256 date;\n        address promoterAddress;\n        string descriptionCID;\n        string treatmentsListCID;\n    }\n\n    struct Project {\n        uint256 protocolID;\n        address promoterAddress;\n        address[] investigatorsAddresses;\n        Status status;\n    }\n\n    /**\n     * @dev To keep track which authority has validated protocols.\n     */\n    mapping(uint256 => address) protocolValidatedByAuthority;\n\n    /**\n     * @dev to keep track which patients were added to a project.\n     */\n    // mapping(uint256 => uint256[]) projectIDToPatientsIDs;\n\n    /**\n     * @dev to keep track which project is associated with a protocol.\n     */\n    mapping(uint256 => uint256) protocolIDToProjectID;\n\n    /**\n     * @dev for multisig agreement on resuming clinical trials.\n     */\n    mapping(address => bool) agreedOnResume;   \n\n    /**\n     * @notice ces tableaux enregistrent les infos des projets ainsi que leurs participants sur la blockchain.\n     */\n    Protocol[] public protocols;\n    Project[] public projects;\n    Patient[] public patients;\n\n    /**\n     * @notice The events are broadcasting alerts and infos,\n     *  and allow tracking smart contract interactions.\n     */\n    event promoterAdded(address _addressPromoter);\n    event authorityAdded(address _addressAuthority);\n    event protocolCreation(address _promoterAddress, uint256 _protocolID);\n    event projectCreation(uint256 _projectID, uint256 _protocolID);\n    event investigatorAdded(address _investigatorAddress);\n    event protocolValidation(uint256 _protocolID, address _authorityAddress);\n    event patientAdded(uint256 _patientID, uint256 _projectID);\n    event consentRevoked(uint256 _patientID);\n    event newConsent(uint256 _patientID);\n    event dataCollected(uint256 _patientID);\n    event alert(uint256 _patientID, uint256 _projectID);\n    event agreedOnResumeEvent(uint256 _protocolID, address _personAgreeing);\n    event resumedAfterAlert(uint256 _protocolID);\n    event protocolUpdated(uint256 _protocolID);\n\n    /**\n     * @dev the constructor initializes the roles of promoters and authorities.\n     * @param _addressPromoter the address of the first promoter designated to be promoters and investigators Admin\n     * @param _addressAuthority the address of the first authority designated to be authorities Admin\n     */\n    constructor(\n        address _addressPromoter,\n        address _addressAuthority\n    ) {\n        /**\n         * @dev Set first address to be Promoter and admin of Promoters.\n         */\n        _setupRole(PROMOTER, _addressPromoter);\n        _setupRole(PROMOTERADMIN, _addressPromoter);\n        /**\n        * @dev Set PROMOTERADMIN as Admins of PROMOTER.\n        */\n        _setRoleAdmin(PROMOTER, PROMOTERADMIN);\n        /**\n         * @dev Set PROMOTER as Admins of INVESTIGATOR.\n         */\n        _setRoleAdmin(INVESTIGATOR, PROMOTER);\n        /**\n         * @dev Set second address to be Authority and admin of Authorities.\n         */\n        _setupRole(AUTHORITY, _addressAuthority);\n        _setupRole(AUTHORITYADMIN, _addressAuthority);\n        /**\n         * @dev Set AUTHORITYADMIN as Admins of AUTHORITY.\n         */\n        _setRoleAdmin(AUTHORITY, AUTHORITYADMIN);\n    }\n\n    /**\n     * @notice This function adds new promoters by promoter admins.\n     * @param _addressPromoter the address to be added to PROMOTER role.\n     */\n    function addPromoter(address _addressPromoter) public {\n        require(\n            hasRole(PROMOTERADMIN, msg.sender),\n            \"You are not Promoter Admin!\"\n        );\n        require(\n            !hasRole(PROMOTER, _addressPromoter),\n            \"Address is already Promoter!\"\n        );\n        grantRole(PROMOTER, _addressPromoter);\n        emit promoterAdded(_addressPromoter);\n    }\n\n    /**\n     * @notice This function adds new authorities by authority admins.\n     * @param _addressAuthority the address to be added to AUTHORITY role.\n     */\n    function addAuthority(address _addressAuthority) public {\n        require(\n            hasRole(AUTHORITYADMIN, msg.sender),\n            \"You are not Authority Admin!\"\n        );\n        require(\n            !hasRole(AUTHORITY, _addressAuthority),\n            \"Address is already Authority!\"\n        );\n        grantRole(AUTHORITY, _addressAuthority);\n        emit authorityAdded(_addressAuthority);\n    }\n\n    /**\n     * @notice This function adds new investigators on a project by a promoter\n     * @param _addressInvestigator the address to be added to INVESTIGATOR Roles.\n     * @param _projectID the ID of the project, the investigator is added onto.\n     */\n    function addInvestigator(address _addressInvestigator, uint256 _projectID)\n        public\n    {\n        require(\n            projects[_projectID].promoterAddress != address(0),\n            \"this project does not exist yet!\"\n        );\n        require(hasRole(PROMOTER, msg.sender), \"You are not Promoter!\");\n        require(\n            !hasRole(INVESTIGATOR, _addressInvestigator),\n            \"Address is already Investigator!\"\n        );\n        grantRole(INVESTIGATOR, _addressInvestigator);\n        emit investigatorAdded(_addressInvestigator);\n        projects[_projectID].investigatorsAddresses.push(_addressInvestigator);\n    }\n\n    /**\n     * @notice Promoters can create new protocols with this function\n     * @param _descriptionCID the Content Identifier (CID) of the protocol's description part on IPFS.\n     * @param _treatmentsListCID the Content Identifier (CID) of the protocol's treatments list part on IPFS.\n     */\n    function createProtocol(\n        string memory _descriptionCID,\n        string memory _treatmentsListCID\n    ) public {\n        require(hasRole(PROMOTER, msg.sender), \"You are not Promoter!\");\n        protocols.push(\n            Protocol(\n                false,\n                false,\n                block.timestamp,\n                msg.sender,\n                _descriptionCID,\n                _treatmentsListCID\n            )\n        );\n        uint256 _protocolID = protocols.length - 1;\n        emit protocolCreation(msg.sender, _protocolID);\n    }\n\n    // /**\n    //  * @notice A protocol can be updated by its promoter owner with this function.\n    //  * This function forces patients to reconsider the protocol and renew their consent.\n    //  * @param _protocolID ID of the protocol to be updated.\n    //  * @param _newDescriptionCID Content Identifier of the description part of the updated protocol on IPFS\n    //  * @param _newTreatmentsListCID Content Identifier of the treatment list part of the updated protocol on IPFS\n    //  */\n    // function updateProtocol(\n    //     uint256 _protocolID,\n    //     string memory _newDescriptionCID,\n    //     string memory _newTreatmentsListCID\n    // ) public {\n    //     require(\n    //         protocols[_protocolID].promoterAddress == msg.sender,\n    //         \"You are not allowed to update the protocol!\"\n    //     );\n    //     protocols[_protocolID].descriptionCID = _newDescriptionCID;\n    //     protocols[_protocolID].treatmentsListCID = _newTreatmentsListCID;\n    //     protocols[_protocolID].validated = false;\n    //     for (\n    //         uint256 i = 0;\n    //         i <\n    //         projectIDToPatientsIDs[protocolIDToProjectID[_protocolID]].length;\n    //         i++\n    //     ) {\n    //         patients[\n    //             projectIDToPatientsIDs[protocolIDToProjectID[_protocolID]][i]\n    //         ]\n    //             .consent = false;\n    //     }\n    //     emit protocolUpdated(_protocolID);\n    // }\n\n\n    // /**\n    //  * @notice Patients can renew their consent using this function\n    //  * @param _patientID ID of the patient renewing his/her consentement\n    //  */\n    // function consent(uint256 _patientID) public {\n    //     require(\n    //         patients[_patientID].patientAddress == msg.sender,\n    //         \"you are not authorized to do that!\"\n    //     );\n    //     patients[_patientID].consent = true;\n    //     emit newConsent(_patientID);\n    // }\n\n    /**\n     * @notice Promoters can create new projects with this function\n     * @param _protocolID ID of the protocol investigated in the project.\n     * @param _investigatorAddress Address of the first investigator added to the project.\n     */\n    function createProject(uint256 _protocolID, address _investigatorAddress)\n        public\n    {\n        require(hasRole(PROMOTER, msg.sender), \"You are not Promoter!\");\n        require(\n            protocols[_protocolID].validated = true,\n            \"This protocol has not been validated!\"\n        );\n        grantRole(INVESTIGATOR, _investigatorAddress);\n        emit investigatorAdded(_investigatorAddress);\n        Project memory project;\n        project.promoterAddress = msg.sender;\n        project.protocolID = _protocolID;\n        project.status = Status.ACTIVE;\n        projects.push(project);\n        uint256 _projectID = projects.length - 1;\n        projects[_projectID].investigatorsAddresses.push(_investigatorAddress);\n        protocolIDToProjectID[_protocolID] = _projectID;\n        emit projectCreation(_projectID, _protocolID);\n    }\n\n    /**\n     * @notice Authorities can validate protocols with this function\n     * @param _protocolID ID of the protocol to be validated\n     */\n    function validateProtocol(uint256 _protocolID) public {\n        require(hasRole(AUTHORITY, msg.sender), \"You are not Authority!\");\n        protocols[_protocolID].validated = true;\n        protocolValidatedByAuthority[_protocolID] = msg.sender;\n        emit protocolValidation(_protocolID, msg.sender);\n    }\n\n\n    /**\n     * @notice Investigators can recruit new patients with this function and initially register their consent\n     * @param _patientAddress Address of the patient to be recruited.\n     * @param _projectID ID of the trials project for which the patient is recruited.\n     * @param _dataCID Content Identifier on IPFS of first of initial medical records of the patient. \n     * @param _nameCID Content Identifier on IPFS of the patient's identity record.\n     */\n    function addPatient(\n        address _patientAddress,\n        uint256 _projectID,\n        string memory _dataCID,\n        string memory _nameCID\n    ) public {\n        require(\n            !isPatientAlreadyInProject(_projectID, _patientAddress),\n            \"Patients already registered!\"\n        );\n        require(hasRole(INVESTIGATOR, msg.sender), \"You are not Investigator!\");\n        require(\n            protocols[projects[_projectID].protocolID].alertOn == false,\n            \"This protocol has an alert!\"\n        );\n        Patient memory _patient;\n        _patient.patientAddress = _patientAddress;\n        _patient.investigatorAddress = msg.sender;\n        _patient.projectID = _projectID;\n        _patient.nameCID = _nameCID;\n        _patient.consent = true;\n        patients.push(_patient);\n        uint256 _patientID = patients.length - 1;\n        patients[_patientID].dataCID.push(_dataCID);\n        // projectIDToPatientsIDs[_projectID].push(_patientID);\n        emit patientAdded(_patientID, _projectID);\n    }\n\n    /**\n     * @notice This function checks if a patient is already enrolled in a project\n     * @param _projectID ID of the project concerned by the verification.\n     * @param _patientAddress Address of patient whose participation in the project is to be verified.\n     */\n    function isPatientAlreadyInProject(\n        uint256 _projectID,\n        address _patientAddress\n    ) private view returns (bool) {\n        for (uint256 i = 0; i < patients.length; i++) {\n            if (\n                patients[i].patientAddress == _patientAddress &&\n                patients[i].projectID == _projectID\n            ) {\n                return true;\n            }\n        }\n        return false;\n    }\n\n    /**\n     * @notice Patients  can revoke their consent using this function\n     * @param _patientID ID of the patient revoking his/her consentement\n     */\n    function revokeConsent(uint256 _patientID) public {\n        require(\n            patients[_patientID].patientAddress == msg.sender,\n            \"you are not authorized to do that!\"\n        );\n        patients[_patientID].consent = false;\n        emit consentRevoked(_patientID);\n    }\n\n    /**\n     * @notice Investigators collects medical data of their patients using this function\n     * @param _patientID ID of the patient whose medical data are collected\n     * @param _newDataCID New Patient's medical data Content Identifier on IPFS\n     */\n    function collectData(uint256 _patientID, string memory _newDataCID) public {\n        require(\n            patients[_patientID].investigatorAddress == msg.sender,\n            \"You are not authorized to access this patient's data!\"\n        );\n        require(patients[_patientID].consent == true, \"No patient's consent!\");\n        /**\n         * @notice stops collecting data on patients if protocol has an alert on\n         */\n        require(\n            protocols[patients[_patientID].projectID].alertOn == false,\n            \"Alert on this protocol!\"\n        );\n        /**\n         * @dev to keep historic of dataCID in the blockchain\n         */\n        patients[_patientID].dataCID.push(_newDataCID);\n        emit dataCollected(_patientID);\n    }\n\n    /**\n     * @notice Investigators trigger an alert for a protocol using this function\n     * @param _patientID ID of the patient whose medical data are alarming\n     * @param _protocolID ID of the protocol concerned by the alert\n     */\n    function setAlertOn(uint256 _patientID, uint256 _protocolID) public {\n        require(\n            patients[_patientID].investigatorAddress == msg.sender,\n            \"You are not authorized to access this patient's data!\"\n        );\n        protocols[_protocolID].alertOn = true;\n        projects[protocolIDToProjectID[_protocolID]].status = Status.SUSPENDED;\n        emit alert(_patientID, _protocolID);\n    }\n\n    /**\n     * @notice This function collects agreement of promoters and authorities to resume clinical trials\n     * @param _protocolID ID of the protocol with an alert concerned by agreement \n     */\n    function agreeOnResume(uint256 _protocolID) public {\n        require(\n            msg.sender == protocols[_protocolID].promoterAddress ||\n                msg.sender == protocolValidatedByAuthority[_protocolID],\n            \"not eligible to give agreement!\"\n        );\n        require(agreedOnResume[msg.sender] == false);\n        agreedOnResume[msg.sender] = true;\n        emit agreedOnResumeEvent(_protocolID, msg.sender);\n    }\n\n    /**\n     * @notice This function allows resuming clinical trials with agreement of promoters and authorities\n     * @param _protocolID ID of the protocol to resume activity after an alert\n     */\n    function resumeAfterAlert(uint256 _protocolID) public {\n        require(\n            agreedOnResume[protocols[_protocolID].promoterAddress] == true &&\n                agreedOnResume[protocolValidatedByAuthority[_protocolID]] ==\n                true,\n            \"promoter and authority not agreed yet!\"\n        );\n        require(\n            msg.sender == protocols[_protocolID].promoterAddress,\n            \"Not entitled to restart clinical trials!\"\n        );\n        protocols[_protocolID].alertOn = false;\n        projects[protocolIDToProjectID[_protocolID]].status = Status.ACTIVE;\n        agreedOnResume[protocols[_protocolID].promoterAddress] = false;\n        agreedOnResume[protocolValidatedByAuthority[_protocolID]] = false;\n        emit resumedAfterAlert(_protocolID);\n    }\n\n    /**\n     * @notice This function allows retrieving data CIDs of a patient\n     * @param _patientID ID of the patient whose data CIDs need to be retrieved\n     */\n    function getPatientDataCIDs(uint256 _patientID)\n        public\n        view\n        returns (string[] memory)\n    {\n        return patients[_patientID].dataCID;\n    }\n\n    /**\n     * @notice This function returns the role associated with the provided address\n     * @param _address Address of the person subject of the role inquiry\n     */\n    function getRole(address _address) public view returns (string memory) {\n        if (hasRole(PROMOTER, _address)) {\n            return \"PROMOTER\";\n        } else if (hasRole(AUTHORITY, _address)) {\n            return \"AUTHORITY\";\n        } else if (hasRole(INVESTIGATOR, _address)) {\n            return \"INVESTIGATOR\";\n        } else {\n        return \"NOROLE\";\n        }\n    }\n\n    /**\n     * @notice This function allows retrieving data CIDs of a protocol\n     * @param _protocolID ID of the protocol whose data CIDs need to be retrieved\n     */\n    function getProtocolCIDs(uint256 _protocolID)\n        public\n        view\n        returns (string[2] memory)\n    {\n        require(\n            hasRole(PROMOTER, msg.sender) ||\n                hasRole(AUTHORITY, msg.sender) ||\n                hasRole(INVESTIGATOR, msg.sender),\n            \"not allowed to read protocol!\"\n        );\n\n        string[2] memory cids =\n            [\n                protocols[_protocolID].descriptionCID,\n                protocols[_protocolID].treatmentsListCID\n            ];\n\n        return cids;\n    }\n\n    /**\n     * @notice This function returns the protocols array\n     */\n    function getProtocols() public view returns (Protocol[] memory) {\n        return protocols;\n    }\n\n    /**\n     * @notice This function returns the projects array\n     */\n    function getProjects() public view returns (Project[] memory) {\n        return projects;\n    }\n\n    /**\n     * @notice This function returns the patients array\n     */\n    function getPatients() public view returns (Patient[] memory) {\n        return patients;\n    }\n\n}\n",
  "sourcePath": "/home/bruno/Documents/Alyra/projet final/BC_et_essais_cliniques/SuiviMed/contracts/SuiviMed.sol",
  "compiler": {
    "name": "solc",
    "version": "0.8.0+commit.c7dfd78e.Emscripten.clang"
  },
  "schemaVersion": "3.3.4",
  "updatedAt": "2021-04-24T12:45:57.794Z",
  "networkType": "ethereum",
  "devdoc": {
    "author": "Bruno Coupier, Samuel Edoumou, Gregory Bost",
    "kind": "dev",
    "methods": {
      "addAuthority(address)": {
        "params": {
          "_addressAuthority": "the address to be added to AUTHORITY role."
        }
      },
      "addInvestigator(address,uint256)": {
        "params": {
          "_addressInvestigator": "the address to be added to INVESTIGATOR Roles.",
          "_projectID": "the ID of the project, the investigator is added onto."
        }
      },
      "addPatient(address,uint256,string,string)": {
        "params": {
          "_dataCID": "Content Identifier on IPFS of first of initial medical records of the patient. ",
          "_nameCID": "Content Identifier on IPFS of the patient's identity record.",
          "_patientAddress": "Address of the patient to be recruited.",
          "_projectID": "ID of the trials project for which the patient is recruited."
        }
      },
      "addPromoter(address)": {
        "params": {
          "_addressPromoter": "the address to be added to PROMOTER role."
        }
      },
      "agreeOnResume(uint256)": {
        "params": {
          "_protocolID": "ID of the protocol with an alert concerned by agreement "
        }
      },
      "collectData(uint256,string)": {
        "params": {
          "_newDataCID": "New Patient's medical data Content Identifier on IPFS",
          "_patientID": "ID of the patient whose medical data are collected"
        }
      },
      "constructor": {
        "details": "the constructor initializes the roles of promoters and authorities.",
        "params": {
          "_addressAuthority": "the address of the first authority designated to be authorities Admin",
          "_addressPromoter": "the address of the first promoter designated to be promoters and investigators Admin"
        }
      },
      "createProject(uint256,address)": {
        "params": {
          "_investigatorAddress": "Address of the first investigator added to the project.",
          "_protocolID": "ID of the protocol investigated in the project."
        }
      },
      "createProtocol(string,string)": {
        "params": {
          "_descriptionCID": "the Content Identifier (CID) of the protocol's description part on IPFS.",
          "_treatmentsListCID": "the Content Identifier (CID) of the protocol's treatments list part on IPFS."
        }
      },
      "getPatientDataCIDs(uint256)": {
        "params": {
          "_patientID": "ID of the patient whose data CIDs need to be retrieved"
        }
      },
      "getProtocolCIDs(uint256)": {
        "params": {
          "_protocolID": "ID of the protocol whose data CIDs need to be retrieved"
        }
      },
      "getRole(address)": {
        "params": {
          "_address": "Address of the person subject of the role inquiry"
        }
      },
      "getRoleAdmin(bytes32)": {
        "details": "Returns the admin role that controls `role`. See {grantRole} and {revokeRole}. To change a role's admin, use {_setRoleAdmin}."
      },
      "grantRole(bytes32,address)": {
        "details": "Grants `role` to `account`. If `account` had not been already granted `role`, emits a {RoleGranted} event. Requirements: - the caller must have ``role``'s admin role."
      },
      "hasRole(bytes32,address)": {
        "details": "Returns `true` if `account` has been granted `role`."
      },
      "renounceRole(bytes32,address)": {
        "details": "Revokes `role` from the calling account. Roles are often managed via {grantRole} and {revokeRole}: this function's purpose is to provide a mechanism for accounts to lose their privileges if they are compromised (such as when a trusted device is misplaced). If the calling account had been granted `role`, emits a {RoleRevoked} event. Requirements: - the caller must be `account`."
      },
      "resumeAfterAlert(uint256)": {
        "params": {
          "_protocolID": "ID of the protocol to resume activity after an alert"
        }
      },
      "revokeConsent(uint256)": {
        "params": {
          "_patientID": "ID of the patient revoking his/her consentement"
        }
      },
      "revokeRole(bytes32,address)": {
        "details": "Revokes `role` from `account`. If `account` had been granted `role`, emits a {RoleRevoked} event. Requirements: - the caller must have ``role``'s admin role."
      },
      "setAlertOn(uint256,uint256)": {
        "params": {
          "_patientID": "ID of the patient whose medical data are alarming",
          "_protocolID": "ID of the protocol concerned by the alert"
        }
      },
      "supportsInterface(bytes4)": {
        "details": "See {IERC165-supportsInterface}."
      },
      "validateProtocol(uint256)": {
        "params": {
          "_protocolID": "ID of the protocol to be validated"
        }
      }
    },
    "stateVariables": {
      "AUTHORITY": {
        "details": "Defines the Roles of AccessControl."
      },
      "agreedOnResume": {
        "details": "for multisig agreement on resuming clinical trials."
      },
      "protocolIDToProjectID": {
        "details": "to keep track which project is associated with a protocol."
      },
      "protocolValidatedByAuthority": {
        "details": "To keep track which authority has validated protocols."
      }
    },
    "title": "Decentralized clinical trials follow up",
    "version": 1
  },
  "userdoc": {
    "events": {
      "promoterAdded(address)": {
        "notice": "The events are broadcasting alerts and infos,  and allow tracking smart contract interactions."
      }
    },
    "kind": "user",
    "methods": {
      "addAuthority(address)": {
        "notice": "This function adds new authorities by authority admins."
      },
      "addInvestigator(address,uint256)": {
        "notice": "This function adds new investigators on a project by a promoter"
      },
      "addPatient(address,uint256,string,string)": {
        "notice": "Investigators can recruit new patients with this function and initially register their consent"
      },
      "addPromoter(address)": {
        "notice": "This function adds new promoters by promoter admins."
      },
      "agreeOnResume(uint256)": {
        "notice": "This function collects agreement of promoters and authorities to resume clinical trials"
      },
      "collectData(uint256,string)": {
        "notice": "Investigators collects medical data of their patients using this function"
      },
      "createProject(uint256,address)": {
        "notice": "Promoters can create new projects with this function"
      },
      "createProtocol(string,string)": {
        "notice": "Promoters can create new protocols with this function"
      },
      "getPatientDataCIDs(uint256)": {
        "notice": "This function allows retrieving data CIDs of a patient"
      },
      "getPatients()": {
        "notice": "This function returns the patients array"
      },
      "getProjects()": {
        "notice": "This function returns the projects array"
      },
      "getProtocolCIDs(uint256)": {
        "notice": "This function allows retrieving data CIDs of a protocol"
      },
      "getProtocols()": {
        "notice": "This function returns the protocols array"
      },
      "getRole(address)": {
        "notice": "This function returns the role associated with the provided address"
      },
      "protocols(uint256)": {
        "notice": "ces tableaux enregistrent les infos des projets ainsi que leurs participants sur la blockchain."
      },
      "resumeAfterAlert(uint256)": {
        "notice": "This function allows resuming clinical trials with agreement of promoters and authorities"
      },
      "revokeConsent(uint256)": {
        "notice": "Patients  can revoke their consent using this function"
      },
      "setAlertOn(uint256,uint256)": {
        "notice": "Investigators trigger an alert for a protocol using this function"
      },
      "validateProtocol(uint256)": {
        "notice": "Authorities can validate protocols with this function"
      }
    },
    "version": 1
  }
}